{
  "_format": "hh-sol-artifact-1",
  "contractName": "GovernanceToken",
  "sourceName": "contracts/GovernanceToken.sol",
  "abi": [
    {
      "inputs": [],
      "stateMutability": "nonpayable",
      "type": "constructor"
    },
    {
      "inputs": [
        {
          "internalType": "address",
          "name": "owner",
          "type": "address"
        }
      ],
      "name": "OwnableInvalidOwner",
      "type": "error"
    },
    {
      "inputs": [
        {
          "internalType": "address",
          "name": "account",
          "type": "address"
        }
      ],
      "name": "OwnableUnauthorizedAccount",
      "type": "error"
    },
    {
      "anonymous": false,
      "inputs": [
        {
          "indexed": true,
          "internalType": "address",
          "name": "walletAddress",
          "type": "address"
        },
        {
          "indexed": false,
          "internalType": "string",
          "name": "challenge",
          "type": "string"
        },
        {
          "indexed": false,
          "internalType": "bytes32",
          "name": "hash",
          "type": "bytes32"
        },
        {
          "indexed": false,
          "internalType": "bytes",
          "name": "signature",
          "type": "bytes"
        }
      ],
      "name": "AddressAdded",
      "type": "event"
    },
    {
      "anonymous": false,
      "inputs": [
        {
          "indexed": true,
          "internalType": "address",
          "name": "walletAddress",
          "type": "address"
        },
        {
          "indexed": false,
          "internalType": "string",
          "name": "reason",
          "type": "string"
        }
      ],
      "name": "AddressRemoved",
      "type": "event"
    },
    {
      "anonymous": false,
      "inputs": [
        {
          "indexed": true,
          "internalType": "address",
          "name": "previousOwner",
          "type": "address"
        },
        {
          "indexed": true,
          "internalType": "address",
          "name": "newOwner",
          "type": "address"
        }
      ],
      "name": "OwnershipTransferred",
      "type": "event"
    },
    {
      "inputs": [
        {
          "internalType": "address",
          "name": "walletAddress",
          "type": "address"
        },
        {
          "internalType": "string",
          "name": "challenge",
          "type": "string"
        },
        {
          "internalType": "bytes32",
          "name": "hash",
          "type": "bytes32"
        },
        {
          "internalType": "bytes",
          "name": "signature",
          "type": "bytes"
        }
      ],
      "name": "addAddress",
      "outputs": [],
      "stateMutability": "nonpayable",
      "type": "function"
    },
    {
      "inputs": [
        {
          "internalType": "address",
          "name": "walletAddress",
          "type": "address"
        }
      ],
      "name": "isWhitelisted",
      "outputs": [
        {
          "internalType": "bool",
          "name": "",
          "type": "bool"
        }
      ],
      "stateMutability": "view",
      "type": "function"
    },
    {
      "inputs": [],
      "name": "owner",
      "outputs": [
        {
          "internalType": "address",
          "name": "",
          "type": "address"
        }
      ],
      "stateMutability": "view",
      "type": "function"
    },
    {
      "inputs": [
        {
          "internalType": "address",
          "name": "walletAddress",
          "type": "address"
        },
        {
          "internalType": "string",
          "name": "reason",
          "type": "string"
        }
      ],
      "name": "removeAddress",
      "outputs": [],
      "stateMutability": "nonpayable",
      "type": "function"
    },
    {
      "inputs": [],
      "name": "renounceOwnership",
      "outputs": [],
      "stateMutability": "nonpayable",
      "type": "function"
    },
    {
      "inputs": [
        {
          "internalType": "address",
          "name": "newOwner",
          "type": "address"
        }
      ],
      "name": "transferOwnership",
      "outputs": [],
      "stateMutability": "nonpayable",
      "type": "function"
    }
  ],
  "bytecode": "0x608060405234801561001057600080fd5b50338061003757604051631e4fbdf760e01b81526000600482015260240160405180910390fd5b61004081610046565b50610096565b600080546001600160a01b038381166001600160a01b0319831681178455604051919092169283917f8be0079c531659141344cd1fd0a4f28419497f9722a3daafe3b4186f6b6457e09190a35050565b610662806100a56000396000f3fe608060405234801561001057600080fd5b50600436106100625760003560e01c8063233c301e14610067578063249c5af21461007c5780633af32abf1461008f578063715018a6146100d05780638da5cb5b146100d8578063f2fde38b146100f3575b600080fd5b61007a6100753660046104a3565b610106565b005b61007a61008a366004610535565b610239565b6100bb61009d366004610583565b6001600160a01b031660009081526001602052604090205460ff1690565b60405190151581526020015b60405180910390f35b61007a610305565b6000546040516001600160a01b0390911681526020016100c7565b61007a610101366004610583565b610319565b61010e610357565b6001600160a01b0384166101695760405162461bcd60e51b815260206004820152601d60248201527f43616e6e6f742077686974656c697374207a65726f206164647265737300000060448201526064015b60405180910390fd5b6001600160a01b03841660009081526001602052604090205460ff16156101d25760405162461bcd60e51b815260206004820152601b60248201527f4164647265737320616c72656164792077686974656c697374656400000000006044820152606401610160565b6001600160a01b038416600081815260016020819052604091829020805460ff19169091179055517f132b6ca9039aa1b741c65d31f9646ddb17842f851be099c5d0841be86de3b5b99061022b908690869086906105e4565b60405180910390a250505050565b610241610357565b6001600160a01b03821660009081526001602052604090205460ff166102a95760405162461bcd60e51b815260206004820152601760248201527f41646472657373206e6f742077686974656c69737465640000000000000000006044820152606401610160565b6001600160a01b03821660008181526001602052604090819020805460ff19169055517f40d1b8c90a526c4d4a3ac32bafe9c3ba00cbdae856c2075efca8b98cadf20fe0906102f9908490610619565b60405180910390a25050565b61030d610357565b6103176000610384565b565b610321610357565b6001600160a01b03811661034b57604051631e4fbdf760e01b815260006004820152602401610160565b61035481610384565b50565b6000546001600160a01b031633146103175760405163118cdaa760e01b8152336004820152602401610160565b600080546001600160a01b038381166001600160a01b0319831681178455604051919092169283917f8be0079c531659141344cd1fd0a4f28419497f9722a3daafe3b4186f6b6457e09190a35050565b80356001600160a01b03811681146103eb57600080fd5b919050565b634e487b7160e01b600052604160045260246000fd5b600067ffffffffffffffff80841115610421576104216103f0565b604051601f8501601f19908116603f01168101908282118183101715610449576104496103f0565b8160405280935085815286868601111561046257600080fd5b858560208301376000602087830101525050509392505050565b600082601f83011261048d57600080fd5b61049c83833560208501610406565b9392505050565b600080600080608085870312156104b957600080fd5b6104c2856103d4565b9350602085013567ffffffffffffffff808211156104df57600080fd5b6104eb8883890161047c565b945060408701359350606087013591508082111561050857600080fd5b508501601f8101871361051a57600080fd5b61052987823560208401610406565b91505092959194509250565b6000806040838503121561054857600080fd5b610551836103d4565b9150602083013567ffffffffffffffff81111561056d57600080fd5b6105798582860161047c565b9150509250929050565b60006020828403121561059557600080fd5b61049c826103d4565b6000815180845260005b818110156105c4576020818501810151868301820152016105a8565b506000602082860101526020601f19601f83011685010191505092915050565b6060815260006105f7606083018661059e565b846020840152828103604084015261060f818561059e565b9695505050505050565b60208152600061049c602083018461059e56fea2646970667358221220da288eb72101b45fa3c6ed5fdcedffd7cb1dd8d00cf36c03918cc25cd46d30bd64736f6c63430008140033",
  "linkReferences": {},
  "deployedLinkReferences": {}
}