{
  "_format": "hh-sol-artifact-1",
  "contractName": "GovernanceToken",
  "sourceName": "contracts/GovernanceToken.sol",
  "abi": [
    {
      "inputs": [],
      "stateMutability": "nonpayable",
      "type": "constructor"
    },
    {
      "inputs": [
        {
          "internalType": "address",
          "name": "owner",
          "type": "address"
        }
      ],
      "name": "OwnableInvalidOwner",
      "type": "error"
    },
    {
      "inputs": [
        {
          "internalType": "address",
          "name": "account",
          "type": "address"
        }
      ],
      "name": "OwnableUnauthorizedAccount",
      "type": "error"
    },
    {
      "anonymous": false,
      "inputs": [
        {
          "indexed": true,
          "internalType": "address",
          "name": "walletAddress",
          "type": "address"
        },
        {
          "indexed": false,
          "internalType": "string",
          "name": "referenceId",
          "type": "string"
        }
      ],
      "name": "AddressAdded",
      "type": "event"
    },
    {
      "anonymous": false,
      "inputs": [
        {
          "indexed": true,
          "internalType": "address",
          "name": "walletAddress",
          "type": "address"
        },
        {
          "indexed": false,
          "internalType": "string",
          "name": "referenceId",
          "type": "string"
        }
      ],
      "name": "AddressRemoved",
      "type": "event"
    },
    {
      "anonymous": false,
      "inputs": [
        {
          "indexed": true,
          "internalType": "address",
          "name": "previousOwner",
          "type": "address"
        },
        {
          "indexed": true,
          "internalType": "address",
          "name": "newOwner",
          "type": "address"
        }
      ],
      "name": "OwnershipTransferred",
      "type": "event"
    },
    {
      "inputs": [
        {
          "internalType": "address",
          "name": "walletAddress",
          "type": "address"
        },
        {
          "internalType": "string",
          "name": "referenceId",
          "type": "string"
        }
      ],
      "name": "addAddress",
      "outputs": [],
      "stateMutability": "nonpayable",
      "type": "function"
    },
    {
      "inputs": [
        {
          "internalType": "address",
          "name": "walletAddress",
          "type": "address"
        }
      ],
      "name": "isWhitelisted",
      "outputs": [
        {
          "internalType": "bool",
          "name": "",
          "type": "bool"
        }
      ],
      "stateMutability": "view",
      "type": "function"
    },
    {
      "inputs": [],
      "name": "owner",
      "outputs": [
        {
          "internalType": "address",
          "name": "",
          "type": "address"
        }
      ],
      "stateMutability": "view",
      "type": "function"
    },
    {
      "inputs": [
        {
          "internalType": "address",
          "name": "walletAddress",
          "type": "address"
        },
        {
          "internalType": "string",
          "name": "referenceId",
          "type": "string"
        }
      ],
      "name": "removeAddress",
      "outputs": [],
      "stateMutability": "nonpayable",
      "type": "function"
    },
    {
      "inputs": [],
      "name": "renounceOwnership",
      "outputs": [],
      "stateMutability": "nonpayable",
      "type": "function"
    },
    {
      "inputs": [
        {
          "internalType": "address",
          "name": "newOwner",
          "type": "address"
        }
      ],
      "name": "transferOwnership",
      "outputs": [],
      "stateMutability": "nonpayable",
      "type": "function"
    }
  ],
  "bytecode": "0x608060405234801561001057600080fd5b50338061003757604051631e4fbdf760e01b81526000600482015260240160405180910390fd5b61004081610046565b50610096565b600080546001600160a01b038381166001600160a01b0319831681178455604051919092169283917f8be0079c531659141344cd1fd0a4f28419497f9722a3daafe3b4186f6b6457e09190a35050565b61055c806100a56000396000f3fe608060405234801561001057600080fd5b50600436106100625760003560e01c8063249c5af2146100675780633af32abf1461007c578063715018a6146100bd5780638da5cb5b146100c5578063d033c456146100e0578063f2fde38b146100f3575b600080fd5b61007a6100753660046103f4565b610106565b005b6100a861008a3660046104b6565b6001600160a01b031660009081526001602052604090205460ff1690565b60405190151581526020015b60405180910390f35b61007a6101d7565b6000546040516001600160a01b0390911681526020016100b4565b61007a6100ee3660046103f4565b6101eb565b61007a6101013660046104b6565b610307565b61010e610345565b6001600160a01b03821660009081526001602052604090205460ff1661017b5760405162461bcd60e51b815260206004820152601760248201527f41646472657373206e6f742077686974656c697374656400000000000000000060448201526064015b60405180910390fd5b6001600160a01b03821660008181526001602052604090819020805460ff19169055517f40d1b8c90a526c4d4a3ac32bafe9c3ba00cbdae856c2075efca8b98cadf20fe0906101cb9084906104d8565b60405180910390a25050565b6101df610345565b6101e96000610372565b565b6101f3610345565b6001600160a01b0382166102495760405162461bcd60e51b815260206004820152601d60248201527f43616e6e6f742077686974656c697374207a65726f20616464726573730000006044820152606401610172565b6001600160a01b03821660009081526001602052604090205460ff16156102b25760405162461bcd60e51b815260206004820152601b60248201527f4164647265737320616c72656164792077686974656c697374656400000000006044820152606401610172565b6001600160a01b038216600081815260016020819052604091829020805460ff19169091179055517f71c4586d57ada124e4bd494b6c0f9cb102be2af60eabee1b5c12e930f6a5eeb6906101cb9084906104d8565b61030f610345565b6001600160a01b03811661033957604051631e4fbdf760e01b815260006004820152602401610172565b61034281610372565b50565b6000546001600160a01b031633146101e95760405163118cdaa760e01b8152336004820152602401610172565b600080546001600160a01b038381166001600160a01b0319831681178455604051919092169283917f8be0079c531659141344cd1fd0a4f28419497f9722a3daafe3b4186f6b6457e09190a35050565b80356001600160a01b03811681146103d957600080fd5b919050565b634e487b7160e01b600052604160045260246000fd5b6000806040838503121561040757600080fd5b610410836103c2565b9150602083013567ffffffffffffffff8082111561042d57600080fd5b818501915085601f83011261044157600080fd5b813581811115610453576104536103de565b604051601f8201601f19908116603f0116810190838211818310171561047b5761047b6103de565b8160405282815288602084870101111561049457600080fd5b8260208601602083013760006020848301015280955050505050509250929050565b6000602082840312156104c857600080fd5b6104d1826103c2565b9392505050565b600060208083528351808285015260005b81811015610505578581018301518582016040015282016104e9565b506000604082860101526040601f19601f830116850101925050509291505056fea2646970667358221220f21da6c53a38b614808d06a5553572b51c2b894bdd8ca98635a41038dcd9cc5364736f6c63430008140033",
  "linkReferences": {},
  "deployedLinkReferences": {}
}