{
  "_format": "hh-sol-artifact-1",
  "contractName": "Token",
  "sourceName": "contracts/Token.sol",
  "abi": [
    {
      "inputs": [
        {
          "internalType": "address",
          "name": "_governanceTokenAddress",
          "type": "address"
        }
      ],
      "stateMutability": "nonpayable",
      "type": "constructor"
    },
    {
      "inputs": [
        {
          "internalType": "address",
          "name": "spender",
          "type": "address"
        },
        {
          "internalType": "uint256",
          "name": "allowance",
          "type": "uint256"
        },
        {
          "internalType": "uint256",
          "name": "needed",
          "type": "uint256"
        }
      ],
      "name": "ERC20InsufficientAllowance",
      "type": "error"
    },
    {
      "inputs": [
        {
          "internalType": "address",
          "name": "sender",
          "type": "address"
        },
        {
          "internalType": "uint256",
          "name": "balance",
          "type": "uint256"
        },
        {
          "internalType": "uint256",
          "name": "needed",
          "type": "uint256"
        }
      ],
      "name": "ERC20InsufficientBalance",
      "type": "error"
    },
    {
      "inputs": [
        {
          "internalType": "address",
          "name": "approver",
          "type": "address"
        }
      ],
      "name": "ERC20InvalidApprover",
      "type": "error"
    },
    {
      "inputs": [
        {
          "internalType": "address",
          "name": "receiver",
          "type": "address"
        }
      ],
      "name": "ERC20InvalidReceiver",
      "type": "error"
    },
    {
      "inputs": [
        {
          "internalType": "address",
          "name": "sender",
          "type": "address"
        }
      ],
      "name": "ERC20InvalidSender",
      "type": "error"
    },
    {
      "inputs": [
        {
          "internalType": "address",
          "name": "spender",
          "type": "address"
        }
      ],
      "name": "ERC20InvalidSpender",
      "type": "error"
    },
    {
      "inputs": [
        {
          "internalType": "address",
          "name": "owner",
          "type": "address"
        }
      ],
      "name": "OwnableInvalidOwner",
      "type": "error"
    },
    {
      "inputs": [
        {
          "internalType": "address",
          "name": "account",
          "type": "address"
        }
      ],
      "name": "OwnableUnauthorizedAccount",
      "type": "error"
    },
    {
      "anonymous": false,
      "inputs": [
        {
          "indexed": true,
          "internalType": "address",
          "name": "owner",
          "type": "address"
        },
        {
          "indexed": true,
          "internalType": "address",
          "name": "spender",
          "type": "address"
        },
        {
          "indexed": false,
          "internalType": "uint256",
          "name": "value",
          "type": "uint256"
        }
      ],
      "name": "Approval",
      "type": "event"
    },
    {
      "anonymous": false,
      "inputs": [
        {
          "indexed": true,
          "internalType": "address",
          "name": "previousOwner",
          "type": "address"
        },
        {
          "indexed": true,
          "internalType": "address",
          "name": "newOwner",
          "type": "address"
        }
      ],
      "name": "OwnershipTransferred",
      "type": "event"
    },
    {
      "anonymous": false,
      "inputs": [
        {
          "indexed": true,
          "internalType": "address",
          "name": "from",
          "type": "address"
        },
        {
          "indexed": true,
          "internalType": "address",
          "name": "to",
          "type": "address"
        },
        {
          "indexed": false,
          "internalType": "uint256",
          "name": "value",
          "type": "uint256"
        }
      ],
      "name": "Transfer",
      "type": "event"
    },
    {
      "inputs": [
        {
          "internalType": "address",
          "name": "owner",
          "type": "address"
        },
        {
          "internalType": "address",
          "name": "spender",
          "type": "address"
        }
      ],
      "name": "allowance",
      "outputs": [
        {
          "internalType": "uint256",
          "name": "",
          "type": "uint256"
        }
      ],
      "stateMutability": "view",
      "type": "function"
    },
    {
      "inputs": [
        {
          "internalType": "address",
          "name": "spender",
          "type": "address"
        },
        {
          "internalType": "uint256",
          "name": "value",
          "type": "uint256"
        }
      ],
      "name": "approve",
      "outputs": [
        {
          "internalType": "bool",
          "name": "",
          "type": "bool"
        }
      ],
      "stateMutability": "nonpayable",
      "type": "function"
    },
    {
      "inputs": [
        {
          "internalType": "address",
          "name": "account",
          "type": "address"
        }
      ],
      "name": "balanceOf",
      "outputs": [
        {
          "internalType": "uint256",
          "name": "",
          "type": "uint256"
        }
      ],
      "stateMutability": "view",
      "type": "function"
    },
    {
      "inputs": [],
      "name": "decimals",
      "outputs": [
        {
          "internalType": "uint8",
          "name": "",
          "type": "uint8"
        }
      ],
      "stateMutability": "view",
      "type": "function"
    },
    {
      "inputs": [],
      "name": "governanceToken",
      "outputs": [
        {
          "internalType": "contract GovernanceToken",
          "name": "",
          "type": "address"
        }
      ],
      "stateMutability": "view",
      "type": "function"
    },
    {
      "inputs": [
        {
          "internalType": "address",
          "name": "to",
          "type": "address"
        },
        {
          "internalType": "uint256",
          "name": "amount",
          "type": "uint256"
        }
      ],
      "name": "mint",
      "outputs": [],
      "stateMutability": "nonpayable",
      "type": "function"
    },
    {
      "inputs": [],
      "name": "name",
      "outputs": [
        {
          "internalType": "string",
          "name": "",
          "type": "string"
        }
      ],
      "stateMutability": "view",
      "type": "function"
    },
    {
      "inputs": [],
      "name": "owner",
      "outputs": [
        {
          "internalType": "address",
          "name": "",
          "type": "address"
        }
      ],
      "stateMutability": "view",
      "type": "function"
    },
    {
      "inputs": [],
      "name": "renounceOwnership",
      "outputs": [],
      "stateMutability": "nonpayable",
      "type": "function"
    },
    {
      "inputs": [],
      "name": "symbol",
      "outputs": [
        {
          "internalType": "string",
          "name": "",
          "type": "string"
        }
      ],
      "stateMutability": "view",
      "type": "function"
    },
    {
      "inputs": [],
      "name": "totalSupply",
      "outputs": [
        {
          "internalType": "uint256",
          "name": "",
          "type": "uint256"
        }
      ],
      "stateMutability": "view",
      "type": "function"
    },
    {
      "inputs": [
        {
          "internalType": "address",
          "name": "to",
          "type": "address"
        },
        {
          "internalType": "uint256",
          "name": "value",
          "type": "uint256"
        }
      ],
      "name": "transfer",
      "outputs": [
        {
          "internalType": "bool",
          "name": "",
          "type": "bool"
        }
      ],
      "stateMutability": "nonpayable",
      "type": "function"
    },
    {
      "inputs": [
        {
          "internalType": "address",
          "name": "from",
          "type": "address"
        },
        {
          "internalType": "address",
          "name": "to",
          "type": "address"
        },
        {
          "internalType": "uint256",
          "name": "value",
          "type": "uint256"
        }
      ],
      "name": "transferFrom",
      "outputs": [
        {
          "internalType": "bool",
          "name": "",
          "type": "bool"
        }
      ],
      "stateMutability": "nonpayable",
      "type": "function"
    },
    {
      "inputs": [
        {
          "internalType": "address",
          "name": "newOwner",
          "type": "address"
        }
      ],
      "name": "transferOwnership",
      "outputs": [],
      "stateMutability": "nonpayable",
      "type": "function"
    }
  ],
  "bytecode": "0x60806040523480156200001157600080fd5b5060405162000fbf38038062000fbf83398101604081905262000034916200019e565b33604051806040016040528060058152602001642a37b5b2b760d91b815250604051806040016040528060038152602001622a25a760e91b815250816003908162000080919062000275565b5060046200008f828262000275565b5050506001600160a01b038116620000c257604051631e4fbdf760e01b8152600060048201526024015b60405180910390fd5b620000cd816200014c565b506001600160a01b038116620001265760405162461bcd60e51b815260206004820181905260248201527f496e76616c696420676f7665726e616e636520746f6b656e20616464726573736044820152606401620000b9565b600680546001600160a01b0319166001600160a01b039290921691909117905562000341565b600580546001600160a01b038381166001600160a01b0319831681179093556040519116919082907f8be0079c531659141344cd1fd0a4f28419497f9722a3daafe3b4186f6b6457e090600090a35050565b600060208284031215620001b157600080fd5b81516001600160a01b0381168114620001c957600080fd5b9392505050565b634e487b7160e01b600052604160045260246000fd5b600181811c90821680620001fb57607f821691505b6020821081036200021c57634e487b7160e01b600052602260045260246000fd5b50919050565b601f8211156200027057600081815260208120601f850160051c810160208610156200024b5750805b601f850160051c820191505b818110156200026c5782815560010162000257565b5050505b505050565b81516001600160401b03811115620002915762000291620001d0565b620002a981620002a28454620001e6565b8462000222565b602080601f831160018114620002e15760008415620002c85750858301515b600019600386901b1c1916600185901b1785556200026c565b600085815260208120601f198616915b828110156200031257888601518255948401946001909101908401620002f1565b5085821015620003315787850151600019600388901b60f8161c191681555b5050505050600190811b01905550565b610c6e80620003516000396000f3fe608060405234801561001057600080fd5b50600436106100ea5760003560e01c8063715018a61161008c578063a9059cbb11610066578063a9059cbb146101d7578063dd62ed3e146101ea578063f2fde38b14610223578063f96dae0a1461023657600080fd5b8063715018a6146101a25780638da5cb5b146101aa57806395d89b41146101cf57600080fd5b806323b872dd116100c857806323b872dd14610142578063313ce5671461015557806340c10f191461016457806370a082311461017957600080fd5b806306fdde03146100ef578063095ea7b31461010d57806318160ddd14610130575b600080fd5b6100f7610249565b6040516101049190610a66565b60405180910390f35b61012061011b366004610ad0565b6102db565b6040519015158152602001610104565b6002545b604051908152602001610104565b610120610150366004610afa565b6102f5565b60405160128152602001610104565b610177610172366004610ad0565b61044b565b005b610134610187366004610b36565b6001600160a01b031660009081526020819052604090205490565b6101776104eb565b6005546001600160a01b03165b6040516001600160a01b039091168152602001610104565b6100f76104ff565b6101206101e5366004610ad0565b61050e565b6101346101f8366004610b51565b6001600160a01b03918216600090815260016020908152604080832093909416825291909152205490565b610177610231366004610b36565b61065b565b6006546101b7906001600160a01b031681565b60606003805461025890610b84565b80601f016020809104026020016040519081016040528092919081815260200182805461028490610b84565b80156102d15780601f106102a6576101008083540402835291602001916102d1565b820191906000526020600020905b8154815290600101906020018083116102b457829003601f168201915b5050505050905090565b6000336102e9818585610699565b60019150505b92915050565b600654604051633af32abf60e01b81526001600160a01b0385811660048301526000921690633af32abf90602401602060405180830381865afa158015610340573d6000803e3d6000fd5b505050506040513d601f19601f820116820180604052508101906103649190610bbe565b6103ae5760405162461bcd60e51b815260206004820152601660248201527514d95b99195c881b9bdd081dda1a5d195b1a5cdd195960521b60448201526064015b60405180910390fd5b600654604051633af32abf60e01b81526001600160a01b03858116600483015290911690633af32abf90602401602060405180830381865afa1580156103f8573d6000803e3d6000fd5b505050506040513d601f19601f8201168201806040525081019061041c9190610bbe565b6104385760405162461bcd60e51b81526004016103a590610be0565b6104438484846106ab565b949350505050565b6104536106cf565b600654604051633af32abf60e01b81526001600160a01b03848116600483015290911690633af32abf90602401602060405180830381865afa15801561049d573d6000803e3d6000fd5b505050506040513d601f19601f820116820180604052508101906104c19190610bbe565b6104dd5760405162461bcd60e51b81526004016103a590610be0565b6104e782826106fc565b5050565b6104f36106cf565b6104fd6000610732565b565b60606004805461025890610b84565b600654604051633af32abf60e01b81523360048201526000916001600160a01b031690633af32abf90602401602060405180830381865afa158015610557573d6000803e3d6000fd5b505050506040513d601f19601f8201168201806040525081019061057b9190610bbe565b6105c05760405162461bcd60e51b815260206004820152601660248201527514d95b99195c881b9bdd081dda1a5d195b1a5cdd195960521b60448201526064016103a5565b600654604051633af32abf60e01b81526001600160a01b03858116600483015290911690633af32abf90602401602060405180830381865afa15801561060a573d6000803e3d6000fd5b505050506040513d601f19601f8201168201806040525081019061062e9190610bbe565b61064a5760405162461bcd60e51b81526004016103a590610be0565b6106548383610784565b9392505050565b6106636106cf565b6001600160a01b03811661068d57604051631e4fbdf760e01b8152600060048201526024016103a5565b61069681610732565b50565b6106a68383836001610792565b505050565b6000336106b9858285610868565b6106c48585856108e1565b506001949350505050565b6005546001600160a01b031633146104fd5760405163118cdaa760e01b81523360048201526024016103a5565b6001600160a01b0382166107265760405163ec442f0560e01b8152600060048201526024016103a5565b6104e76000838361093c565b600580546001600160a01b038381166001600160a01b0319831681179093556040519116919082907f8be0079c531659141344cd1fd0a4f28419497f9722a3daafe3b4186f6b6457e090600090a35050565b6000336102e98185856108e1565b6001600160a01b0384166107bc5760405163e602df0560e01b8152600060048201526024016103a5565b6001600160a01b0383166107e657604051634a1406b160e11b8152600060048201526024016103a5565b6001600160a01b038085166000908152600160209081526040808320938716835292905220829055801561086257826001600160a01b0316846001600160a01b03167f8c5be1e5ebec7d5bd14f71427d1e84f3dd0314c0f7b2291e5b200ac8c7c3b9258460405161085991815260200190565b60405180910390a35b50505050565b6001600160a01b0383811660009081526001602090815260408083209386168352929052205460001981101561086257818110156108d257604051637dc7a0d960e11b81526001600160a01b038416600482015260248101829052604481018390526064016103a5565b61086284848484036000610792565b6001600160a01b03831661090b57604051634b637e8f60e11b8152600060048201526024016103a5565b6001600160a01b0382166109355760405163ec442f0560e01b8152600060048201526024016103a5565b6106a68383835b6001600160a01b03831661096757806002600082825461095c9190610c17565b909155506109d99050565b6001600160a01b038316600090815260208190526040902054818110156109ba5760405163391434e360e21b81526001600160a01b038516600482015260248101829052604481018390526064016103a5565b6001600160a01b03841660009081526020819052604090209082900390555b6001600160a01b0382166109f557600280548290039055610a14565b6001600160a01b03821660009081526020819052604090208054820190555b816001600160a01b0316836001600160a01b03167fddf252ad1be2c89b69c2b068fc378daa952ba7f163c4a11628f55a4df523b3ef83604051610a5991815260200190565b60405180910390a3505050565b600060208083528351808285015260005b81811015610a9357858101830151858201604001528201610a77565b506000604082860101526040601f19601f8301168501019250505092915050565b80356001600160a01b0381168114610acb57600080fd5b919050565b60008060408385031215610ae357600080fd5b610aec83610ab4565b946020939093013593505050565b600080600060608486031215610b0f57600080fd5b610b1884610ab4565b9250610b2660208501610ab4565b9150604084013590509250925092565b600060208284031215610b4857600080fd5b61065482610ab4565b60008060408385031215610b6457600080fd5b610b6d83610ab4565b9150610b7b60208401610ab4565b90509250929050565b600181811c90821680610b9857607f821691505b602082108103610bb857634e487b7160e01b600052602260045260246000fd5b50919050565b600060208284031215610bd057600080fd5b8151801515811461065457600080fd5b60208082526019908201527f526563697069656e74206e6f742077686974656c697374656400000000000000604082015260600190565b808201808211156102ef57634e487b7160e01b600052601160045260246000fdfea26469706673582212208c9c5f87a2f8b5e3321c1b2acb5617ea248a586a125d0f674f7c5b31d038493664736f6c63430008140033",
  "linkReferences": {},
  "deployedLinkReferences": {}
}